{
  "_format": "hh-sol-artifact-1",
  "contractName": "doors",
  "sourceName": "contracts/doors.sol",
  "abi": [
    {
      "inputs": [],
      "stateMutability": "nonpayable",
      "type": "constructor"
    },
    {
      "anonymous": false,
      "inputs": [
        {
          "indexed": true,
          "internalType": "address",
          "name": "owner",
          "type": "address"
        },
        {
          "indexed": true,
          "internalType": "address",
          "name": "approved",
          "type": "address"
        },
        {
          "indexed": true,
          "internalType": "uint256",
          "name": "tokenId",
          "type": "uint256"
        }
      ],
      "name": "Approval",
      "type": "event"
    },
    {
      "anonymous": false,
      "inputs": [
        {
          "indexed": true,
          "internalType": "address",
          "name": "owner",
          "type": "address"
        },
        {
          "indexed": true,
          "internalType": "address",
          "name": "operator",
          "type": "address"
        },
        {
          "indexed": false,
          "internalType": "bool",
          "name": "approved",
          "type": "bool"
        }
      ],
      "name": "ApprovalForAll",
      "type": "event"
    },
    {
      "anonymous": false,
      "inputs": [
        {
          "indexed": true,
          "internalType": "address",
          "name": "from",
          "type": "address"
        },
        {
          "indexed": true,
          "internalType": "address",
          "name": "to",
          "type": "address"
        },
        {
          "indexed": true,
          "internalType": "uint256",
          "name": "tokenId",
          "type": "uint256"
        }
      ],
      "name": "Transfer",
      "type": "event"
    },
    {
      "anonymous": false,
      "inputs": [
        {
          "indexed": false,
          "internalType": "address",
          "name": "sender",
          "type": "address"
        },
        {
          "indexed": false,
          "internalType": "uint256",
          "name": "tokenId",
          "type": "uint256"
        }
      ],
      "name": "doorMinted",
      "type": "event"
    },
    {
      "inputs": [
        {
          "internalType": "address",
          "name": "to",
          "type": "address"
        },
        {
          "internalType": "uint256",
          "name": "tokenId",
          "type": "uint256"
        }
      ],
      "name": "approve",
      "outputs": [],
      "stateMutability": "nonpayable",
      "type": "function"
    },
    {
      "inputs": [
        {
          "internalType": "address",
          "name": "owner",
          "type": "address"
        }
      ],
      "name": "balanceOf",
      "outputs": [
        {
          "internalType": "uint256",
          "name": "",
          "type": "uint256"
        }
      ],
      "stateMutability": "view",
      "type": "function"
    },
    {
      "inputs": [
        {
          "internalType": "uint256",
          "name": "tokenId",
          "type": "uint256"
        }
      ],
      "name": "getApproved",
      "outputs": [
        {
          "internalType": "address",
          "name": "",
          "type": "address"
        }
      ],
      "stateMutability": "view",
      "type": "function"
    },
    {
      "inputs": [
        {
          "internalType": "address",
          "name": "owner",
          "type": "address"
        },
        {
          "internalType": "address",
          "name": "operator",
          "type": "address"
        }
      ],
      "name": "isApprovedForAll",
      "outputs": [
        {
          "internalType": "bool",
          "name": "",
          "type": "bool"
        }
      ],
      "stateMutability": "view",
      "type": "function"
    },
    {
      "inputs": [],
      "name": "name",
      "outputs": [
        {
          "internalType": "string",
          "name": "",
          "type": "string"
        }
      ],
      "stateMutability": "view",
      "type": "function"
    },
    {
      "inputs": [],
      "name": "openDoors",
      "outputs": [],
      "stateMutability": "nonpayable",
      "type": "function"
    },
    {
      "inputs": [
        {
          "internalType": "uint256",
          "name": "tokenId",
          "type": "uint256"
        }
      ],
      "name": "ownerOf",
      "outputs": [
        {
          "internalType": "address",
          "name": "",
          "type": "address"
        }
      ],
      "stateMutability": "view",
      "type": "function"
    },
    {
      "inputs": [
        {
          "internalType": "uint256",
          "name": "tokenId",
          "type": "uint256"
        }
      ],
      "name": "pickRandomFirstWord",
      "outputs": [
        {
          "internalType": "string",
          "name": "",
          "type": "string"
        }
      ],
      "stateMutability": "view",
      "type": "function"
    },
    {
      "inputs": [
        {
          "internalType": "uint256",
          "name": "tokenId",
          "type": "uint256"
        }
      ],
      "name": "pickRandomSecondWord",
      "outputs": [
        {
          "internalType": "string",
          "name": "",
          "type": "string"
        }
      ],
      "stateMutability": "view",
      "type": "function"
    },
    {
      "inputs": [
        {
          "internalType": "uint256",
          "name": "tokenId",
          "type": "uint256"
        }
      ],
      "name": "pickRandomThirdWord",
      "outputs": [
        {
          "internalType": "string",
          "name": "",
          "type": "string"
        }
      ],
      "stateMutability": "view",
      "type": "function"
    },
    {
      "inputs": [
        {
          "internalType": "address",
          "name": "from",
          "type": "address"
        },
        {
          "internalType": "address",
          "name": "to",
          "type": "address"
        },
        {
          "internalType": "uint256",
          "name": "tokenId",
          "type": "uint256"
        }
      ],
      "name": "safeTransferFrom",
      "outputs": [],
      "stateMutability": "nonpayable",
      "type": "function"
    },
    {
      "inputs": [
        {
          "internalType": "address",
          "name": "from",
          "type": "address"
        },
        {
          "internalType": "address",
          "name": "to",
          "type": "address"
        },
        {
          "internalType": "uint256",
          "name": "tokenId",
          "type": "uint256"
        },
        {
          "internalType": "bytes",
          "name": "_data",
          "type": "bytes"
        }
      ],
      "name": "safeTransferFrom",
      "outputs": [],
      "stateMutability": "nonpayable",
      "type": "function"
    },
    {
      "inputs": [
        {
          "internalType": "address",
          "name": "operator",
          "type": "address"
        },
        {
          "internalType": "bool",
          "name": "approved",
          "type": "bool"
        }
      ],
      "name": "setApprovalForAll",
      "outputs": [],
      "stateMutability": "nonpayable",
      "type": "function"
    },
    {
      "inputs": [
        {
          "internalType": "bytes4",
          "name": "interfaceId",
          "type": "bytes4"
        }
      ],
      "name": "supportsInterface",
      "outputs": [
        {
          "internalType": "bool",
          "name": "",
          "type": "bool"
        }
      ],
      "stateMutability": "view",
      "type": "function"
    },
    {
      "inputs": [],
      "name": "symbol",
      "outputs": [
        {
          "internalType": "string",
          "name": "",
          "type": "string"
        }
      ],
      "stateMutability": "view",
      "type": "function"
    },
    {
      "inputs": [
        {
          "internalType": "uint256",
          "name": "tokenId",
          "type": "uint256"
        }
      ],
      "name": "tokenURI",
      "outputs": [
        {
          "internalType": "string",
          "name": "",
          "type": "string"
        }
      ],
      "stateMutability": "view",
      "type": "function"
    },
    {
      "inputs": [
        {
          "internalType": "address",
          "name": "from",
          "type": "address"
        },
        {
          "internalType": "address",
          "name": "to",
          "type": "address"
        },
        {
          "internalType": "uint256",
          "name": "tokenId",
          "type": "uint256"
        }
      ],
      "name": "transferFrom",
      "outputs": [],
      "stateMutability": "nonpayable",
      "type": "function"
    }
  ],
  "bytecode": "0x608060405260405180611e400160405280611e0681526020016200436a611e069139600890805190602001906200003892919062000713565b506040518060e001604052806040518060400160405280600181526020017f310000000000000000000000000000000000000000000000000000000000000081525081526020016040518060400160405280600181526020017f320000000000000000000000000000000000000000000000000000000000000081525081526020016040518060400160405280600181526020017f330000000000000000000000000000000000000000000000000000000000000081525081526020016040518060400160405280600181526020017f340000000000000000000000000000000000000000000000000000000000000081525081526020016040518060400160405280600181526020017f350000000000000000000000000000000000000000000000000000000000000081525081526020016040518060400160405280600181526020017f360000000000000000000000000000000000000000000000000000000000000081525081526020016040518060400160405280600181526020017f37000000000000000000000000000000000000000000000000000000000000008152508152506009906007620001f1929190620007a4565b506040518060e001604052806040518060400160405280600481526020017f57494e440000000000000000000000000000000000000000000000000000000081525081526020016040518060400160405280600581526020017f574154455200000000000000000000000000000000000000000000000000000081525081526020016040518060400160405280600581526020017f454152544800000000000000000000000000000000000000000000000000000081525081526020016040518060400160405280600481526020017f464952450000000000000000000000000000000000000000000000000000000081525081526020016040518060400160405280600581526020017f4d4554414c00000000000000000000000000000000000000000000000000000081525081526020016040518060400160405280600481526020017f574f4f440000000000000000000000000000000000000000000000000000000081525081526020016040518060400160405280600681526020017f48454156454e0000000000000000000000000000000000000000000000000000815250815250600a906007620003aa929190620007a4565b506040518060e001604052806040518060400160405280600781526020017f4352595354414c0000000000000000000000000000000000000000000000000081525081526020016040518060400160405280600581526020017f53544f4e4500000000000000000000000000000000000000000000000000000081525081526020016040518060400160405280600581526020017f475241494c00000000000000000000000000000000000000000000000000000081525081526020016040518060400160405280600581526020017f53574f524400000000000000000000000000000000000000000000000000000081525081526020016040518060400160405280600481526020017f57414e440000000000000000000000000000000000000000000000000000000081525081526020016040518060400160405280600781526020017f534345505445520000000000000000000000000000000000000000000000000081525081526020016040518060400160405280600481526020017f434f494e00000000000000000000000000000000000000000000000000000000815250815250600b90600762000563929190620007a4565b503480156200057157600080fd5b506040518060400160405280600b81526020017f566f6964536f63696574790000000000000000000000000000000000000000008152506040518060400160405280600481526020017f564f4944000000000000000000000000000000000000000000000000000000008152508160009080519060200190620005f692919062000713565b5080600190805190602001906200060f92919062000713565b5050506200064160405180606001604052806023815260200162004347602391396200064760201b6200122d1760201c565b620009c5565b620006e7816040516024016200065e9190620008d9565b6040516020818303038152906040527f41304fac000000000000000000000000000000000000000000000000000000007bffffffffffffffffffffffffffffffffffffffffffffffffffffffff19166020820180517bffffffffffffffffffffffffffffffffffffffffffffffffffffffff8381831617835250505050620006ea60201b60201c565b50565b60008151905060006a636f6e736f6c652e6c6f679050602083016000808483855afa5050505050565b82805462000721906200094f565b90600052602060002090601f01602090048101928262000745576000855562000791565b82601f106200076057805160ff191683800117855562000791565b8280016001018555821562000791579182015b828111156200079057825182559160200191906001019062000773565b5b509050620007a091906200080b565b5090565b828054828255906000526020600020908101928215620007f8579160200282015b82811115620007f7578251829080519060200190620007e692919062000713565b5091602001919060010190620007c5565b5b5090506200080791906200082a565b5090565b5b80821115620008265760008160009055506001016200080c565b5090565b5b808211156200084e576000818162000844919062000852565b506001016200082b565b5090565b50805462000860906200094f565b6000825580601f1062000874575062000895565b601f0160209004906000526020600020908101906200089491906200080b565b5b50565b6000620008a582620008fd565b620008b1818562000908565b9350620008c381856020860162000919565b620008ce81620009b4565b840191505092915050565b60006020820190508181036000830152620008f5818462000898565b905092915050565b600081519050919050565b600082825260208201905092915050565b60005b83811015620009395780820151818401526020810190506200091c565b8381111562000949576000848401525b50505050565b600060028204905060018216806200096857607f821691505b602082108114156200097f576200097e62000985565b5b50919050565b7f4e487b7100000000000000000000000000000000000000000000000000000000600052602260045260246000fd5b6000601f19601f8301169050919050565b61397280620009d56000396000f3fe608060405234801561001057600080fd5b506004361061010b5760003560e01c80636352211e116100a2578063b187301f11610071578063b187301f146102b6578063b88d4fde146102e6578063c575757a14610302578063c87b56dd14610332578063e985e9c5146103625761010b565b80636352211e1461021c57806370a082311461024c57806395d89b411461027c578063a22cb4651461029a5761010b565b806323b872dd116100de57806323b872dd146101aa5780632de38d68146101c6578063394d52d5146101f657806342842e0e146102005761010b565b806301ffc9a71461011057806306fdde0314610140578063081812fc1461015e578063095ea7b31461018e575b600080fd5b61012a600480360381019061012591906124c0565b610392565b60405161013791906131e8565b60405180910390f35b610148610474565b6040516101559190613203565b60405180910390f35b61017860048036038101906101739190612512565b610506565b6040516101859190613158565b60405180910390f35b6101a860048036038101906101a39190612484565b61058b565b005b6101c460048036038101906101bf919061237e565b6106a3565b005b6101e060048036038101906101db9190612512565b610703565b6040516101ed9190613203565b60405180910390f35b6101fe610821565b005b61021a6004803603810190610215919061237e565b610a0c565b005b61023660048036038101906102319190612512565b610a2c565b6040516102439190613158565b60405180910390f35b61026660048036038101906102619190612319565b610ade565b6040516102739190613463565b60405180910390f35b610284610b96565b6040516102919190613203565b60405180910390f35b6102b460048036038101906102af9190612448565b610c28565b005b6102d060048036038101906102cb9190612512565b610da9565b6040516102dd9190613203565b60405180910390f35b61030060048036038101906102fb91906123cd565b610ec7565b005b61031c60048036038101906103179190612512565b610f29565b6040516103299190613203565b60405180910390f35b61034c60048036038101906103479190612512565b611047565b6040516103599190613203565b60405180910390f35b61037c60048036038101906103779190612342565b611199565b60405161038991906131e8565b60405180910390f35b60007f80ac58cd000000000000000000000000000000000000000000000000000000007bffffffffffffffffffffffffffffffffffffffffffffffffffffffff1916827bffffffffffffffffffffffffffffffffffffffffffffffffffffffff1916148061045d57507f5b5e139f000000000000000000000000000000000000000000000000000000007bffffffffffffffffffffffffffffffffffffffffffffffffffffffff1916827bffffffffffffffffffffffffffffffffffffffffffffffffffffffff1916145b8061046d575061046c826112c6565b5b9050919050565b60606000805461048390613702565b80601f01602080910402602001604051908101604052809291908181526020018280546104af90613702565b80156104fc5780601f106104d1576101008083540402835291602001916104fc565b820191906000526020600020905b8154815290600101906020018083116104df57829003601f168201915b5050505050905090565b600061051182611330565b610550576040517f08c379a0000000000000000000000000000000000000000000000000000000008152600401610547906133c3565b60405180910390fd5b6004600083815260200190815260200160002060009054906101000a900473ffffffffffffffffffffffffffffffffffffffff169050919050565b600061059682610a2c565b90508073ffffffffffffffffffffffffffffffffffffffff168373ffffffffffffffffffffffffffffffffffffffff161415610607576040517f08c379a00000000000000000000000000000000000000000000000000000000081526004016105fe90613423565b60405180910390fd5b8073ffffffffffffffffffffffffffffffffffffffff1661062661139c565b73ffffffffffffffffffffffffffffffffffffffff16148061065557506106548161064f61139c565b611199565b5b610694576040517f08c379a000000000000000000000000000000000000000000000000000000000815260040161068b90613303565b60405180910390fd5b61069e83836113a4565b505050565b6106b46106ae61139c565b8261145d565b6106f3576040517f08c379a00000000000000000000000000000000000000000000000000000000081526004016106ea90613443565b60405180910390fd5b6106fe83838361153b565b505050565b6060600061073761071384611797565b6040516020016107239190613114565b604051602081830303815290604052611944565b90506009805490508161074a919061377d565b905060098181548110610786577f4e487b7100000000000000000000000000000000000000000000000000000000600052603260045260246000fd5b90600052602060002001805461079b90613702565b80601f01602080910402602001604051908101604052809291908181526020018280546107c790613702565b80156108145780601f106107e957610100808354040283529160200191610814565b820191906000526020600020905b8154815290600101906020018083116107f757829003601f168201915b5050505050915050919050565b600061082d6007611977565b9050600061083a82610703565b9050600061084783610da9565b9050600061085484610f29565b9050600083838360405160200161086d93929190612fe5565b604051602081830303815290604052905060006008858585604051602001610898949392919061302c565b604051602081830303815290604052905060006108dd836108b884611985565b6040516020016108c99291906130cf565b604051602081830303815290604052611985565b90506000816040516020016108f29190613136565b60405160208183030381529060405290506109416040518060400160405280601581526020017f0a2d2d2d2d2d2d2d2d2d2d2d2d2d2d2d2d2d2d2d2d000000000000000000000081525061122d565b61094a8161122d565b6109886040518060400160405280601581526020017f2d2d2d2d2d2d2d2d2d2d2d2d2d2d2d2d2d2d2d2d0a000000000000000000000081525061122d565b6109923389611b43565b61099c8882611b61565b6109bf6040518060600160405280602581526020016138d8602591398933611bd5565b6109c96007611c74565b7f5887876adbbd171dcda106c7ebfede7e420bf3f0dcab5a02e1e12f4a6464b14e33896040516109fa9291906131bf565b60405180910390a15050505050505050565b610a2783838360405180602001604052806000815250610ec7565b505050565b6000806002600084815260200190815260200160002060009054906101000a900473ffffffffffffffffffffffffffffffffffffffff169050600073ffffffffffffffffffffffffffffffffffffffff168173ffffffffffffffffffffffffffffffffffffffff161415610ad5576040517f08c379a0000000000000000000000000000000000000000000000000000000008152600401610acc90613343565b60405180910390fd5b80915050919050565b60008073ffffffffffffffffffffffffffffffffffffffff168273ffffffffffffffffffffffffffffffffffffffff161415610b4f576040517f08c379a0000000000000000000000000000000000000000000000000000000008152600401610b4690613323565b60405180910390fd5b600360008373ffffffffffffffffffffffffffffffffffffffff1673ffffffffffffffffffffffffffffffffffffffff168152602001908152602001600020549050919050565b606060018054610ba590613702565b80601f0160208091040260200160405190810160405280929190818152602001828054610bd190613702565b8015610c1e5780601f10610bf357610100808354040283529160200191610c1e565b820191906000526020600020905b815481529060010190602001808311610c0157829003601f168201915b5050505050905090565b610c3061139c565b73ffffffffffffffffffffffffffffffffffffffff168273ffffffffffffffffffffffffffffffffffffffff161415610c9e576040517f08c379a0000000000000000000000000000000000000000000000000000000008152600401610c95906132c3565b60405180910390fd5b8060056000610cab61139c565b73ffffffffffffffffffffffffffffffffffffffff1673ffffffffffffffffffffffffffffffffffffffff16815260200190815260200160002060008473ffffffffffffffffffffffffffffffffffffffff1673ffffffffffffffffffffffffffffffffffffffff16815260200190815260200160002060006101000a81548160ff0219169083151502179055508173ffffffffffffffffffffffffffffffffffffffff16610d5861139c565b73ffffffffffffffffffffffffffffffffffffffff167f17307eab39ab6107e8899845ad3d59bd9653f200f220920489ca2b5937696c3183604051610d9d91906131e8565b60405180910390a35050565b60606000610ddd610db984611797565b604051602001610dc991906130ad565b604051602081830303815290604052611944565b9050600a8054905081610df0919061377d565b9050600a8181548110610e2c577f4e487b7100000000000000000000000000000000000000000000000000000000600052603260045260246000fd5b906000526020600020018054610e4190613702565b80601f0160208091040260200160405190810160405280929190818152602001828054610e6d90613702565b8015610eba5780601f10610e8f57610100808354040283529160200191610eba565b820191906000526020600020905b815481529060010190602001808311610e9d57829003601f168201915b5050505050915050919050565b610ed8610ed261139c565b8361145d565b610f17576040517f08c379a0000000000000000000000000000000000000000000000000000000008152600401610f0e90613443565b60405180910390fd5b610f2384848484611c8a565b50505050565b60606000610f5d610f3984611797565b604051602001610f49919061308b565b604051602081830303815290604052611944565b9050600b8054905081610f70919061377d565b9050600b8181548110610fac577f4e487b7100000000000000000000000000000000000000000000000000000000600052603260045260246000fd5b906000526020600020018054610fc190613702565b80601f0160208091040260200160405190810160405280929190818152602001828054610fed90613702565b801561103a5780601f1061100f5761010080835404028352916020019161103a565b820191906000526020600020905b81548152906001019060200180831161101d57829003601f168201915b5050505050915050919050565b606061105282611330565b611091576040517f08c379a0000000000000000000000000000000000000000000000000000000008152600401611088906133a3565b60405180910390fd5b60006006600084815260200190815260200160002080546110b190613702565b80601f01602080910402602001604051908101604052809291908181526020018280546110dd90613702565b801561112a5780601f106110ff5761010080835404028352916020019161112a565b820191906000526020600020905b81548152906001019060200180831161110d57829003601f168201915b50505050509050600061113b611ce6565b9050600081511415611151578192505050611194565b60008251111561118657808260405160200161116e929190612fc1565b60405160208183030381529060405292505050611194565b61118f84611cfd565b925050505b919050565b6000600560008473ffffffffffffffffffffffffffffffffffffffff1673ffffffffffffffffffffffffffffffffffffffff16815260200190815260200160002060008373ffffffffffffffffffffffffffffffffffffffff1673ffffffffffffffffffffffffffffffffffffffff16815260200190815260200160002060009054906101000a900460ff16905092915050565b6112c3816040516024016112419190613203565b6040516020818303038152906040527f41304fac000000000000000000000000000000000000000000000000000000007bffffffffffffffffffffffffffffffffffffffffffffffffffffffff19166020820180517bffffffffffffffffffffffffffffffffffffffffffffffffffffffff8381831617835250505050611da4565b50565b60007f01ffc9a7000000000000000000000000000000000000000000000000000000007bffffffffffffffffffffffffffffffffffffffffffffffffffffffff1916827bffffffffffffffffffffffffffffffffffffffffffffffffffffffff1916149050919050565b60008073ffffffffffffffffffffffffffffffffffffffff166002600084815260200190815260200160002060009054906101000a900473ffffffffffffffffffffffffffffffffffffffff1673ffffffffffffffffffffffffffffffffffffffff1614159050919050565b600033905090565b816004600083815260200190815260200160002060006101000a81548173ffffffffffffffffffffffffffffffffffffffff021916908373ffffffffffffffffffffffffffffffffffffffff160217905550808273ffffffffffffffffffffffffffffffffffffffff1661141783610a2c565b73ffffffffffffffffffffffffffffffffffffffff167f8c5be1e5ebec7d5bd14f71427d1e84f3dd0314c0f7b2291e5b200ac8c7c3b92560405160405180910390a45050565b600061146882611330565b6114a7576040517f08c379a000000000000000000000000000000000000000000000000000000000815260040161149e906132e3565b60405180910390fd5b60006114b283610a2c565b90508073ffffffffffffffffffffffffffffffffffffffff168473ffffffffffffffffffffffffffffffffffffffff16148061152157508373ffffffffffffffffffffffffffffffffffffffff1661150984610506565b73ffffffffffffffffffffffffffffffffffffffff16145b8061153257506115318185611199565b5b91505092915050565b8273ffffffffffffffffffffffffffffffffffffffff1661155b82610a2c565b73ffffffffffffffffffffffffffffffffffffffff16146115b1576040517f08c379a00000000000000000000000000000000000000000000000000000000081526004016115a8906133e3565b60405180910390fd5b600073ffffffffffffffffffffffffffffffffffffffff168273ffffffffffffffffffffffffffffffffffffffff161415611621576040517f08c379a0000000000000000000000000000000000000000000000000000000008152600401611618906132a3565b60405180910390fd5b61162c838383611dcd565b6116376000826113a4565b6001600360008573ffffffffffffffffffffffffffffffffffffffff1673ffffffffffffffffffffffffffffffffffffffff16815260200190815260200160002060008282546116879190613618565b925050819055506001600360008473ffffffffffffffffffffffffffffffffffffffff1673ffffffffffffffffffffffffffffffffffffffff16815260200190815260200160002060008282546116de9190613537565b92505081905550816002600083815260200190815260200160002060006101000a81548173ffffffffffffffffffffffffffffffffffffffff021916908373ffffffffffffffffffffffffffffffffffffffff160217905550808273ffffffffffffffffffffffffffffffffffffffff168473ffffffffffffffffffffffffffffffffffffffff167fddf252ad1be2c89b69c2b068fc378daa952ba7f163c4a11628f55a4df523b3ef60405160405180910390a4505050565b606060008214156117df576040518060400160405280600181526020017f3000000000000000000000000000000000000000000000000000000000000000815250905061193f565b600082905060005b600082146118115780806117fa90613734565b915050600a8261180a919061358d565b91506117e7565b60008167ffffffffffffffff811115611853577f4e487b7100000000000000000000000000000000000000000000000000000000600052604160045260246000fd5b6040519080825280601f01601f1916602001820160405280156118855781602001600182028036833780820191505090505b5090505b600085146119385760018261189e9190613618565b9150600a856118ad919061377d565b60306118b99190613537565b60f81b8183815181106118f5577f4e487b7100000000000000000000000000000000000000000000000000000000600052603260045260246000fd5b60200101907effffffffffffffffffffffffffffffffffffffffffffffffffffffffffffff1916908160001a905350600a85611931919061358d565b9450611889565b8093505050505b919050565b6000816040516020016119579190612faa565b6040516020818303038152906040528051906020012060001c9050919050565b600081600001549050919050565b606060008251905060008114156119ae5760405180602001604052806000815250915050611b3e565b600060036002836119bf9190613537565b6119c9919061358d565b60046119d591906135be565b905060006020826119e69190613537565b67ffffffffffffffff811115611a25577f4e487b7100000000000000000000000000000000000000000000000000000000600052604160045260246000fd5b6040519080825280601f01601f191660200182016040528015611a575781602001600182028036833780820191505090505b50905060006040518060600160405280604081526020016138fd604091399050600181016020830160005b86811015611afb5760038101905062ffffff818a015116603f8160121c168401518060081b905060ff603f83600c1c1686015116810190508060081b905060ff603f8360061c1686015116810190508060081b905060ff603f831686015116810190508060e01b90508084526004840193505050611a82565b506003860660018114611b155760028114611b2557611b30565b613d3d60f01b6002830352611b30565b603d60f81b60018303525b508484525050819450505050505b919050565b611b5d828260405180602001604052806000815250611dd2565b5050565b611b6a82611330565b611ba9576040517f08c379a0000000000000000000000000000000000000000000000000000000008152600401611ba090613363565b60405180910390fd5b80600660008481526020019081526020016000209080519060200190611bd09291906121a5565b505050565b611c6f838383604051602401611bed93929190613225565b6040516020818303038152906040527fe3849f79000000000000000000000000000000000000000000000000000000007bffffffffffffffffffffffffffffffffffffffffffffffffffffffff19166020820180517bffffffffffffffffffffffffffffffffffffffffffffffffffffffff8381831617835250505050611da4565b505050565b6001816000016000828254019250508190555050565b611c9584848461153b565b611ca184848484611e2d565b611ce0576040517f08c379a0000000000000000000000000000000000000000000000000000000008152600401611cd790613263565b60405180910390fd5b50505050565b606060405180602001604052806000815250905090565b6060611d0882611330565b611d47576040517f08c379a0000000000000000000000000000000000000000000000000000000008152600401611d3e90613403565b60405180910390fd5b6000611d51611ce6565b90506000815111611d715760405180602001604052806000815250611d9c565b80611d7b84611797565b604051602001611d8c929190612fc1565b6040516020818303038152906040525b915050919050565b60008151905060006a636f6e736f6c652e6c6f679050602083016000808483855afa5050505050565b505050565b611ddc8383611fc4565b611de96000848484611e2d565b611e28576040517f08c379a0000000000000000000000000000000000000000000000000000000008152600401611e1f90613263565b60405180910390fd5b505050565b6000611e4e8473ffffffffffffffffffffffffffffffffffffffff16612192565b15611fb7578373ffffffffffffffffffffffffffffffffffffffff1663150b7a02611e7761139c565b8786866040518563ffffffff1660e01b8152600401611e999493929190613173565b602060405180830381600087803b158015611eb357600080fd5b505af1925050508015611ee457506040513d601f19601f82011682018060405250810190611ee191906124e9565b60015b611f67573d8060008114611f14576040519150601f19603f3d011682016040523d82523d6000602084013e611f19565b606091505b50600081511415611f5f576040517f08c379a0000000000000000000000000000000000000000000000000000000008152600401611f5690613263565b60405180910390fd5b805181602001fd5b63150b7a0260e01b7bffffffffffffffffffffffffffffffffffffffffffffffffffffffff1916817bffffffffffffffffffffffffffffffffffffffffffffffffffffffff191614915050611fbc565b600190505b949350505050565b600073ffffffffffffffffffffffffffffffffffffffff168273ffffffffffffffffffffffffffffffffffffffff161415612034576040517f08c379a000000000000000000000000000000000000000000000000000000000815260040161202b90613383565b60405180910390fd5b61203d81611330565b1561207d576040517f08c379a000000000000000000000000000000000000000000000000000000000815260040161207490613283565b60405180910390fd5b61208960008383611dcd565b6001600360008473ffffffffffffffffffffffffffffffffffffffff1673ffffffffffffffffffffffffffffffffffffffff16815260200190815260200160002060008282546120d99190613537565b92505081905550816002600083815260200190815260200160002060006101000a81548173ffffffffffffffffffffffffffffffffffffffff021916908373ffffffffffffffffffffffffffffffffffffffff160217905550808273ffffffffffffffffffffffffffffffffffffffff16600073ffffffffffffffffffffffffffffffffffffffff167fddf252ad1be2c89b69c2b068fc378daa952ba7f163c4a11628f55a4df523b3ef60405160405180910390a45050565b600080823b905060008111915050919050565b8280546121b190613702565b90600052602060002090601f0160209004810192826121d3576000855561221a565b82601f106121ec57805160ff191683800117855561221a565b8280016001018555821561221a579182015b828111156122195782518255916020019190600101906121fe565b5b509050612227919061222b565b5090565b5b8082111561224457600081600090555060010161222c565b5090565b600061225b612256846134af565b61347e565b90508281526020810184848401111561227357600080fd5b61227e8482856136c0565b509392505050565b6000813590506122958161387b565b92915050565b6000813590506122aa81613892565b92915050565b6000813590506122bf816138a9565b92915050565b6000815190506122d4816138a9565b92915050565b600082601f8301126122eb57600080fd5b81356122fb848260208601612248565b91505092915050565b600081359050612313816138c0565b92915050565b60006020828403121561232b57600080fd5b600061233984828501612286565b91505092915050565b6000806040838503121561235557600080fd5b600061236385828601612286565b925050602061237485828601612286565b9150509250929050565b60008060006060848603121561239357600080fd5b60006123a186828701612286565b93505060206123b286828701612286565b92505060406123c386828701612304565b9150509250925092565b600080600080608085870312156123e357600080fd5b60006123f187828801612286565b945050602061240287828801612286565b935050604061241387828801612304565b925050606085013567ffffffffffffffff81111561243057600080fd5b61243c878288016122da565b91505092959194509250565b6000806040838503121561245b57600080fd5b600061246985828601612286565b925050602061247a8582860161229b565b9150509250929050565b6000806040838503121561249757600080fd5b60006124a585828601612286565b92505060206124b685828601612304565b9150509250929050565b6000602082840312156124d257600080fd5b60006124e0848285016122b0565b91505092915050565b6000602082840312156124fb57600080fd5b6000612509848285016122c5565b91505092915050565b60006020828403121561252457600080fd5b600061253284828501612304565b91505092915050565b6125448161364c565b82525050565b6125538161365e565b82525050565b6000612564826134f4565b61256e818561350a565b935061257e8185602086016136cf565b6125878161386a565b840191505092915050565b600061259d826134ff565b6125a7818561351b565b93506125b78185602086016136cf565b6125c08161386a565b840191505092915050565b60006125d6826134ff565b6125e0818561352c565b93506125f08185602086016136cf565b80840191505092915050565b6000815461260981613702565b612613818661352c565b9450600182166000811461262e576001811461263f57612672565b60ff19831686528186019350612672565b612648856134df565b60005b8381101561266a5781548189015260018201915060208101905061264b565b838801955050505b50505092915050565b600061268860328361351b565b91507f4552433732313a207472616e7366657220746f206e6f6e20455243373231526560008301527f63656976657220696d706c656d656e74657200000000000000000000000000006020830152604082019050919050565b60006126ee601c8361351b565b91507f4552433732313a20746f6b656e20616c7265616479206d696e746564000000006000830152602082019050919050565b600061272e600a8361352c565b91507f54484952445f574f5244000000000000000000000000000000000000000000006000830152600a82019050919050565b600061276e60248361351b565b91507f4552433732313a207472616e7366657220746f20746865207a65726f2061646460008301527f72657373000000000000000000000000000000000000000000000000000000006020830152604082019050919050565b60006127d460198361351b565b91507f4552433732313a20617070726f766520746f2063616c6c6572000000000000006000830152602082019050919050565b6000612814600b8361352c565b91507f5345434f4e445f574f52440000000000000000000000000000000000000000006000830152600b82019050919050565b6000612854602c8361351b565b91507f4552433732313a206f70657261746f7220717565727920666f72206e6f6e657860008301527f697374656e7420746f6b656e00000000000000000000000000000000000000006020830152604082019050919050565b60006128ba60028361352c565b91507f2f2f0000000000000000000000000000000000000000000000000000000000006000830152600282019050919050565b60006128fa60388361351b565b91507f4552433732313a20617070726f76652063616c6c6572206973206e6f74206f7760008301527f6e6572206e6f7220617070726f76656420666f7220616c6c00000000000000006020830152604082019050919050565b6000612960602a8361351b565b91507f4552433732313a2062616c616e636520717565727920666f7220746865207a6560008301527f726f2061646472657373000000000000000000000000000000000000000000006020830152604082019050919050565b60006129c660298361351b565b91507f4552433732313a206f776e657220717565727920666f72206e6f6e657869737460008301527f656e7420746f6b656e00000000000000000000000000000000000000000000006020830152604082019050919050565b6000612a2c602e8361351b565b91507f45524337323155524953746f726167653a2055524920736574206f66206e6f6e60008301527f6578697374656e7420746f6b656e0000000000000000000000000000000000006020830152604082019050919050565b6000612a9260028361352c565b91507f227d0000000000000000000000000000000000000000000000000000000000006000830152600282019050919050565b6000612ad260208361351b565b91507f4552433732313a206d696e7420746f20746865207a65726f20616464726573736000830152602082019050919050565b6000612b1260318361351b565b91507f45524337323155524953746f726167653a2055524920717565727920666f722060008301527f6e6f6e6578697374656e7420746f6b656e0000000000000000000000000000006020830152604082019050919050565b6000612b78602c8361351b565b91507f4552433732313a20617070726f76656420717565727920666f72206e6f6e657860008301527f697374656e7420746f6b656e00000000000000000000000000000000000000006020830152604082019050919050565b6000612bde60298361351b565b91507f4552433732313a207472616e73666572206f6620746f6b656e2074686174206960008301527f73206e6f74206f776e00000000000000000000000000000000000000000000006020830152604082019050919050565b6000612c44602f8361351b565b91507f4552433732314d657461646174613a2055524920717565727920666f72206e6f60008301527f6e6578697374656e7420746f6b656e00000000000000000000000000000000006020830152604082019050919050565b6000612caa600a8361352c565b91507f7b226e616d65223a2022000000000000000000000000000000000000000000006000830152600a82019050919050565b6000612cea601e8361352c565b91507f3c2f747370616e3e3c747370616e20783d27302720793d2732382e38273e00006000830152601e82019050919050565b6000612d2a60218361351b565b91507f4552433732313a20617070726f76616c20746f2063757272656e74206f776e6560008301527f72000000000000000000000000000000000000000000000000000000000000006020830152604082019050919050565b6000612d90600a8361352c565b91507f46495253545f574f5244000000000000000000000000000000000000000000006000830152600a82019050919050565b6000612dd060168361352c565b91507f3c747370616e20783d27302720793d2731342e34273e000000000000000000006000830152601682019050919050565b6000612e10601d8361352c565b91507f646174613a6170706c69636174696f6e2f6a736f6e3b6261736536342c0000006000830152601d82019050919050565b6000612e5060318361351b565b91507f4552433732313a207472616e736665722063616c6c6572206973206e6f74206f60008301527f776e6572206e6f7220617070726f7665640000000000000000000000000000006020830152604082019050919050565b6000612eb660628361352c565b91507f222c20226465736372697074696f6e223a20225768656e206f6e6520646f6f7260008301527f206f70656e732c20616e6f7468657220646f6f72206f70656e732e222c20226960208301527f6d616765223a2022646174613a696d6167652f7376672b786d6c3b626173653660408301527f342c0000000000000000000000000000000000000000000000000000000000006060830152606282019050919050565b6000612f6860158361352c565b91507f3c2f747370616e3e3c2f746578743e3c2f7376673e00000000000000000000006000830152601582019050919050565b612fa4816136b6565b82525050565b6000612fb682846125cb565b915081905092915050565b6000612fcd82856125cb565b9150612fd982846125cb565b91508190509392505050565b6000612ff182866125cb565b9150612ffc826128ad565b915061300882856125cb565b9150613013826128ad565b915061301f82846125cb565b9150819050949350505050565b600061303882876125fc565b915061304482866125cb565b915061304f82612dc3565b915061305b82856125cb565b915061306682612cdd565b915061307282846125cb565b915061307d82612f5b565b915081905095945050505050565b600061309682612721565b91506130a282846125cb565b915081905092915050565b60006130b882612807565b91506130c482846125cb565b915081905092915050565b60006130da82612c9d565b91506130e682856125cb565b91506130f182612ea9565b91506130fd82846125cb565b915061310882612a85565b91508190509392505050565b600061311f82612d83565b915061312b82846125cb565b915081905092915050565b600061314182612e03565b915061314d82846125cb565b915081905092915050565b600060208201905061316d600083018461253b565b92915050565b6000608082019050613188600083018761253b565b613195602083018661253b565b6131a26040830185612f9b565b81810360608301526131b48184612559565b905095945050505050565b60006040820190506131d4600083018561253b565b6131e16020830184612f9b565b9392505050565b60006020820190506131fd600083018461254a565b92915050565b6000602082019050818103600083015261321d8184612592565b905092915050565b6000606082019050818103600083015261323f8186612592565b905061324e6020830185612f9b565b61325b604083018461253b565b949350505050565b6000602082019050818103600083015261327c8161267b565b9050919050565b6000602082019050818103600083015261329c816126e1565b9050919050565b600060208201905081810360008301526132bc81612761565b9050919050565b600060208201905081810360008301526132dc816127c7565b9050919050565b600060208201905081810360008301526132fc81612847565b9050919050565b6000602082019050818103600083015261331c816128ed565b9050919050565b6000602082019050818103600083015261333c81612953565b9050919050565b6000602082019050818103600083015261335c816129b9565b9050919050565b6000602082019050818103600083015261337c81612a1f565b9050919050565b6000602082019050818103600083015261339c81612ac5565b9050919050565b600060208201905081810360008301526133bc81612b05565b9050919050565b600060208201905081810360008301526133dc81612b6b565b9050919050565b600060208201905081810360008301526133fc81612bd1565b9050919050565b6000602082019050818103600083015261341c81612c37565b9050919050565b6000602082019050818103600083015261343c81612d1d565b9050919050565b6000602082019050818103600083015261345c81612e43565b9050919050565b60006020820190506134786000830184612f9b565b92915050565b6000604051905081810181811067ffffffffffffffff821117156134a5576134a461383b565b5b8060405250919050565b600067ffffffffffffffff8211156134ca576134c961383b565b5b601f19601f8301169050602081019050919050565b60008190508160005260206000209050919050565b600081519050919050565b600081519050919050565b600082825260208201905092915050565b600082825260208201905092915050565b600081905092915050565b6000613542826136b6565b915061354d836136b6565b9250827fffffffffffffffffffffffffffffffffffffffffffffffffffffffffffffffff03821115613582576135816137ae565b5b828201905092915050565b6000613598826136b6565b91506135a3836136b6565b9250826135b3576135b26137dd565b5b828204905092915050565b60006135c9826136b6565b91506135d4836136b6565b9250817fffffffffffffffffffffffffffffffffffffffffffffffffffffffffffffffff048311821515161561360d5761360c6137ae565b5b828202905092915050565b6000613623826136b6565b915061362e836136b6565b925082821015613641576136406137ae565b5b828203905092915050565b600061365782613696565b9050919050565b60008115159050919050565b60007fffffffff0000000000000000000000000000000000000000000000000000000082169050919050565b600073ffffffffffffffffffffffffffffffffffffffff82169050919050565b6000819050919050565b82818337600083830152505050565b60005b838110156136ed5780820151818401526020810190506136d2565b838111156136fc576000848401525b50505050565b6000600282049050600182168061371a57607f821691505b6020821081141561372e5761372d61380c565b5b50919050565b600061373f826136b6565b91507fffffffffffffffffffffffffffffffffffffffffffffffffffffffffffffffff821415613772576137716137ae565b5b600182019050919050565b6000613788826136b6565b9150613793836136b6565b9250826137a3576137a26137dd565b5b828206905092915050565b7f4e487b7100000000000000000000000000000000000000000000000000000000600052601160045260246000fd5b7f4e487b7100000000000000000000000000000000000000000000000000000000600052601260045260246000fd5b7f4e487b7100000000000000000000000000000000000000000000000000000000600052602260045260246000fd5b7f4e487b7100000000000000000000000000000000000000000000000000000000600052604160045260246000fd5b6000601f19601f8301169050919050565b6138848161364c565b811461388f57600080fd5b50565b61389b8161365e565b81146138a657600080fd5b50565b6138b28161366a565b81146138bd57600080fd5b50565b6138c9816136b6565b81146138d457600080fd5b5056fe416e204e465420772f20494420257320686173206265656e206d696e74656420746f2025734142434445464748494a4b4c4d4e4f505152535455565758595a6162636465666768696a6b6c6d6e6f707172737475767778797a303132333435363738392b2fa26469706673582212200822fb96cde3962bf09cfcad1518a27d5bd19b9c21b10ab09c8c007a3fa89aba64736f6c6343000800003354686973206973206d792066616e6379204e465420636f6e74726163742e204c4647213c7376672069643d274c617965725f312720646174612d6e616d653d274c6179657220312720786d6c6e733d27687474703a2f2f7777772e77332e6f72672f323030302f7376672720786d6c6e733a786c696e6b3d27687474703a2f2f7777772e77332e6f72672f313939392f786c696e6b272076696577426f783d27302030203331332e3237203331332e3237273e3c646566733e3c7374796c653e2e636c732d317b66696c6c3a233038303130313b7d2e636c732d327b66696c6c3a236539653865313b7d2e636c732d337b66696c6c3a236666363635633b6f7061636974793a302e37353b7d2e636c732d347b66696c6c3a236663636538373b7d2e636c732d342c2e636c732d357b6f7061636974793a302e353b7d2e636c732d357b66696c6c3a236434666639373b7d2e636c732d367b69736f6c6174696f6e3a69736f6c6174653b7d2e636c732d377b636c69702d706174683a75726c2823636c69702d70617468293b7d2e636c732d387b636c69702d706174683a75726c2823636c69702d706174682d32293b7d2e636c732d397b636c69702d706174683a75726c2823636c69702d706174682d33293b7d2e636c732d31307b666f6e742d73697a653a313270783b666f6e742d66616d696c793a4d797269616450726f2d526567756c61722c204d79726961642050726f3b7d2e636c732d31317b6c65747465722d73706163696e673a2d302e3032656d3b7d2e636c732d31327b6c65747465722d73706163696e673a30656d3b7d2e636c732d31337b6c65747465722d73706163696e673a302e3033656d3b7d2e636c732d31347b6c65747465722d73706163696e673a2d302e3031656d3b7d3c2f7374796c653e3c636c6970506174682069643d27636c69702d7061746827207472616e73666f726d3d277472616e736c617465282d3637322e3636202d3932392e383329273e3c7061746820636c6173733d27636c732d312720643d274d3834382e39332c313230352e3738682d2e31346c2d2e372d2e30392c31322e34392d31312e3534682e3135612e33372e33372c302c302c302c2e332d2e303868306c2e34342e343868306c2d31312e38362c313141312c312c302c302c312c3834382e39332c313230352e37385a272f3e3c2f636c6970506174683e3c636c6970506174682069643d27636c69702d706174682d3227207472616e73666f726d3d277472616e736c617465282d3637322e3636202d3932392e383329273e3c7061746820636c6173733d27636c732d312720643d274d3834392e36322c313230352e35316c2d2e34342d2e34386830612e33392e33392c302c302c302c2e31312d2e3238762d2e31346c2e31312d2e312c31322e342d31312e3437762e373461312c312c302c302c312d2e33322e373768305a272f3e3c2f636c6970506174683e3c636c6970506174682069643d27636c69702d706174682d3327207472616e73666f726d3d277472616e736c617465282d3637322e3636202d3932392e383329273e3c7061746820636c6173733d27636c732d312720643d274d3834382e39342c313230352e37396c2d38382e37322d31302e38392c31322e352d31312e35352c38382e37312c31302e38395a6d2d38372e32332d31312e33382c38372c31302e36394c3836302c313139342e37326c2d38372d31302e36385a272f3e3c2f636c6970506174683e3c2f646566733e3c7265637420636c6173733d27636c732d32272077696474683d273331332e323727206865696768743d273331332e3237272f3e3c7061746820636c6173733d27636c732d332720643d274d3930312e33352c313135382e3435612e37362e37362c302c302c312d2e32342e35392e38332e38332c302c302c312d2e35322e3139682d2e31316c2d38372e38362d31302e373961312c312c302c302c312d2e38382d316c2d312e34322d39332e3138632e30372d312e33342e38342d332e32382c322e332d352e37366c2e30362d2e316133342e32342c33342e32342c302c302c312c322e31392d332e32382c38302e30372c38302e30372c302c302c312d352e36322d32352e36332c34382e33362c34382e33362c302c302c312c342e312d32312e36346331302d32322c33342e36382d32392e34372c33392e35332d33302e373461312e36372c312e36372c302c302c312c2e36372c302c322c322c302c302c312c2e36372e323163362e32382c332e31352c36302e37382c33322e342c34312e31352c383676306c2d2e36362e3838612e32392e32392c302c302c302c302c2e333863332e31322c332e34382c352c372e33372c352e31312c31302e36385a27207472616e73666f726d3d277472616e736c617465282d3637322e3636202d3932392e383329272f3e3c7061746820636c6173733d27636c732d342720643d274d3838372e38382c313137312e3932612e37362e37362c302c302c312d2e32342e35392e38332e38332c302c302c312d2e35322e3139483838376c2d38372e38362d31302e373961312c312c302c302c312d2e38382d316c2d312e34322d39332e3138632e30372d312e33342e38342d332e32382c322e332d352e37366c2e30362d2e316133342e32342c33342e32342c302c302c312c322e31392d332e32382c38302e30372c38302e30372c302c302c312d352e36322d32352e36332c34382e33362c34382e33362c302c302c312c342e312d32312e36346331302d32322c33342e36382d32392e34372c33392e35332d33302e373461312e36372c312e36372c302c302c312c2e36372c302c322c322c302c302c312c2e36372e323163362e32382c332e31352c36302e37382c33322e342c34312e31352c383676306c2d2e36362e3838612e32392e32392c302c302c302c302c2e333863332e31322c332e34382c352c372e33372c352e31312c31302e36385a27207472616e73666f726d3d277472616e736c617465282d3637322e3636202d3932392e383329272f3e3c7061746820636c6173733d27636c732d352720643d274d3837342e34312c313138352e3339612e37362e37362c302c302c312d2e32342e35392e38332e38332c302c302c312d2e35322e3139682d2e31316c2d38372e38362d31302e373961312c312c302c302c312d2e38382d316c2d312e34322d39332e3138632e30372d312e33342e38342d332e32382c322e332d352e3736612e34372e34372c302c302c302c2e30362d2e312c33342e32342c33342e32342c302c302c312c322e31392d332e32382c38302e30372c38302e30372c302c302c312d352e36322d32352e36332c34382e33362c34382e33362c302c302c312c342e312d32312e36346331302d32322c33342e36382d32392e34372c33392e35332d33302e373461312e36372c312e36372c302c302c312c2e36372c302c322c322c302c302c312c2e36372e323163362e32382c332e31352c36302e37382c33322e342c34312e31352c383676306c2d2e36362e3838612e32392e32392c302c302c302c302c2e333863332e31322c332e34382c352c372e33372c352e31312c31302e36385a27207472616e73666f726d3d277472616e736c617465282d3637322e3636202d3932392e383329272f3e3c6720636c6173733d27636c732d36273e3c7061746820636c6173733d27636c732d312720643d274d3834382e39332c313230352e3738682d2e31346c2d2e372d2e30392c31322e34392d31312e3534682e3135612e33372e33372c302c302c302c2e332d2e303868306c2e34342e343868306c2d31312e38362c313141312c312c302c302c312c3834382e39332c313230352e37385a27207472616e73666f726d3d277472616e736c617465282d3637322e3636202d3932392e383329272f3e3c6720636c6173733d27636c732d37273e3c7061746820643d274d3834382e39332c313230352e3533682d2e31316c2d2e31372c302c2e31332d2e31322c31312e38382d313168306c2e38362d2e38762e3138612e37372e37372c302c302c312d2e32352e35392e37362e37362c302c302c312d2e35362e326c2d31312c31302e3231612e38312e38312c302c302c312d2e32352e3536412e37392e37392c302c302c312c3834382e39332c313230352e35335a6d2e35382d2e362d2e34362e3433612e35342e35342c302c302c302c2e32392d2e3135412e35372e35372c302c302c302c3834392e35312c313230342e39335a4d3836312e33362c313139346c2d2e34312e3338612e35352e35352c302c302c302c2e32352d2e3133412e362e362c302c302c302c3836312e33362c313139345a27207472616e73666f726d3d277472616e736c617465282d3637322e3636202d3932392e383329272f3e3c7061746820636c6173733d27636c732d312720643d274d3834382c313230352e38386c2e31312d2e31312d2e32312c302c31322e36352d31312e363968306c312e32392d312e3139762e32326c2e322d2e31392d2e322e3539762e3361312e30382c312e30382c302c302c312d2e33352e38342c312e31322c312e31322c302c302c312d2e36352e32386c2d31302e38372c313061312e31322c312e31322c302c302c312d2e33342e36342c312e312c312e312c302c302c312d2e38392e32376c2d2e33382c305a27207472616e73666f726d3d277472616e736c617465282d3637322e3636202d3932392e383329272f3e3c7265637420783d273834372e30382720793d27313139392e3832272077696474683d2731362e313527206865696768743d27302e313627207472616e73666f726d3d277472616e736c617465282d313236302e3134202d32392e36382920726f74617465282d34322e373929272f3e3c7265637420636c6173733d27636c732d312720783d273834362e37352720793d27313139392e3439272077696474683d2731362e383127206865696768743d27302e383227207472616e73666f726d3d277472616e736c617465282d313235392e3738202d33312e34342920726f74617465282d34322e373229272f3e3c7061746820643d274d3834382e39332c313230352e3533682d2e31316c2d2e31372c302c2e31332d2e31322c31312e38382d31316830612e36332e36332c302c302c302c2e352d2e313568306c2e31312e313268306c2d31312e38362c3131412e37352e37352c302c302c312c3834382e39332c313230352e35335a6d31312e37392d31312d31312e36372c31302e3739612e35342e35342c302c302c302c2e32392d2e31356c31312e35322d31302e36355a27207472616e73666f726d3d277472616e736c617465282d3637322e3636202d3932392e383329272f3e3c7061746820636c6173733d27636c732d312720643d274d3834382c313230352e38376c2e31312d2e312d2e32312c302c31322e36352d31312e36392e31352c30612e33332e33332c302c302c302c2e32382d2e30366c2e32342d2e32322e33342e33352e32382c302d2e31372e31352e31312e31322d31322e312c31312e313961312e30382c312e30382c302c302c312d2e392e32386c2d2e33392c305a27207472616e73666f726d3d277472616e736c617465282d3637322e3636202d3932392e383329272f3e3c2f673e3c2f673e3c6720636c6173733d27636c732d36273e3c7061746820636c6173733d27636c732d312720643d274d3834392e36322c313230352e35316c2d2e34342d2e34386830612e33392e33392c302c302c302c2e31312d2e3238762d2e31346c2e31312d2e312c31322e342d31312e3437762e373461312c312c302c302c312d2e33322e373768305a27207472616e73666f726d3d277472616e736c617465282d3637322e3636202d3932392e383329272f3e3c6720636c6173733d27636c732d38273e3c7061746820643d274d3834382e39332c313230352e3533682d2e31316c2d2e31372c302c2e31332d2e31322c31312e38382d313168306c2e38362d2e38762e3138612e37372e37372c302c302c312d2e32352e35392e37362e37362c302c302c312d2e35362e326c2d31312c31302e3231612e38312e38312c302c302c312d2e32352e3536412e37392e37392c302c302c312c3834382e39332c313230352e35335a6d2e35382d2e362d2e34362e3433612e35342e35342c302c302c302c2e32392d2e3135412e35372e35372c302c302c302c3834392e35312c313230342e39335a4d3836312e33362c313139346c2d2e34312e3338612e35352e35352c302c302c302c2e32352d2e3133412e362e362c302c302c302c3836312e33362c313139345a27207472616e73666f726d3d277472616e736c617465282d3637322e3636202d3932392e383329272f3e3c7061746820636c6173733d27636c732d312720643d274d3834382c313230352e38386c2e31312d2e31312d2e32312c302c31322e36352d31312e363968306c312e32392d312e3139762e32326c2e322d2e31392d2e322e3539762e3361312e30382c312e30382c302c302c312d2e33352e38342c312e31322c312e31322c302c302c312d2e36352e32386c2d31302e38372c313061312e31322c312e31322c302c302c312d2e33342e36342c312e312c312e312c302c302c312d2e38392e32376c2d2e33382c305a27207472616e73666f726d3d277472616e736c617465282d3637322e3636202d3932392e383329272f3e3c7265637420783d273834372e33372720793d27313139392e3537272077696474683d2731362e313527206865696768743d27302e313627207472616e73666f726d3d277472616e736c617465282d313235392e39202d32392e35352920726f74617465282d34322e373929272f3e3c7265637420636c6173733d27636c732d312720783d273834372e30342720793d27313139392e3234272077696474683d2731362e383127206865696768743d27302e383227207472616e73666f726d3d277472616e736c617465282d313235392e3533202d33312e33322920726f74617465282d34322e373229272f3e3c7061746820643d274d3834392e34352c313230352e33336c2d2e31312d2e3132612e362e362c302c302c302c2e31392d2e343676306c302c302c31322d31312e3039762e3138612e382e382c302c302c312d2e32352e35395a6d2e32352d2e353573302c2e30382c302c2e31316c31312e35312d31302e3634612e35312e35312c302c302c302c2e31362d2e32355a27207472616e73666f726d3d277472616e736c617465282d3637322e3636202d3932392e383329272f3e3c7061746820636c6173733d27636c732d312720643d274d3834392e34342c313230352e386c2d2e31322d2e31332d2e31322e31322c302d2e32312d2e33362d2e33392e32342d2e3232612e32392e32392c302c302c302c2e30382d2e3232762d2e31346c2e31312d2e31342c31322e35362d31312e3631762e32326c2e32312d2e322d2e32312e3631762e323961312e30372c312e30372c302c302c312d2e33342e38335a27207472616e73666f726d3d277472616e736c617465282d3637322e3636202d3932392e383329272f3e3c2f673e3c2f673e3c6720636c6173733d27636c732d36273e3c7061746820636c6173733d27636c732d312720643d274d3834382e39342c313230352e37396c2d38382e37322d31302e38392c31322e352d31312e35352c38382e37312c31302e38395a6d2d38372e32332d31312e33382c38372c31302e36394c3836302c313139342e37326c2d38372d31302e36385a27207472616e73666f726d3d277472616e736c617465282d3637322e3636202d3932392e383329272f3e3c6720636c6173733d27636c732d39273e3c7061746820643d274d3834382e38362c313230352e353368306c2d38382d31302e38312e31332d2e31322c31312e38392d313168306c38382c31302e38312d2e31332e31325a6d2d38372e37312d31302e39342c38372e36352c31302e37372c31312e372d31302e38322d38372e36352d31302e37365a27207472616e73666f726d3d277472616e736c617465282d3637322e3636202d3932392e383329272f3e3c7061746820636c6173733d27636c732d312720643d274d3834392c313230352e38376c2d2e31392c304c3736302c313139356c31322e36352d31312e36392e31342c302c38382e37392c31302e395a6d2d38372e30372d31312e35324c3834382e36392c313230356c31312e30372d31302e32334c3737332c313138342e31325a27207472616e73666f726d3d277472616e736c617465282d3637322e3636202d3932392e383329272f3e3c2f673e3c2f673e3c7061746820636c6173733d27636c732d312720643d274d3836302e33362c313130302e3537632d2e31332d332e33382d322d372e33342d352e322d31302e38342e31392d2e32352e33382d2e352e35392d2e386c2e31332d2e31396331392e37332d35332e38362d33352d38332e32332d34312e33312d38362e3461322e32312c322e32312c302c302c302d2e37382d2e32342c322c322c302c302c302d2e382c30632d342e30362c312e30372d32322c362e34362d33332e372c32312e31334135312e332c35312e332c302c302c302c3736312e342c313034346134382e34382c34382e34382c302c302c302d342e31332c32312e37392c38302c38302c302c302c302c352e35372c32352e3536632d2e35322e36352d312e34312c322e30362d322e312c332e31376c2d2e30362e3131632d2e31342e32332d2e32362e34352d2e33392e36376c2d2e36382c312e3368306131302e38322c31302e38322c302c302c302d312e32372c346c312e34312c39332e313861312e33342c312e33342c302c302c302c312e31372c312e32396c38372e38362c31302e3739682e313561312e312c312e312c302c302c302c2e37342d2e32382c312e31322c312e31322c302c302c302c2e33362d2e38346c2d2e31392d31312e31382c31302e382c312e3333682e313561312e312c312e312c302c302c302c2e37342d2e32382c312e30382c312e30382c302c302c302c2e33352d2e38345a6d2d38372e35342c38322e32372d312e342d393363302d322e37312c342d382e332c342e33392d382e392e32382d2e332e31352d2e36342d2e30362d312e303968306c302d2e316830632d362e37332d31372e37352d372e31382d33332e32372d312e33332d34362e31346134352e36312c34352e36312c302c302c312c352e37372d392e34332c37312e39312c37312e39312c302c302c312c32312e33352d392e392e38322e38322c302c302c312c2e32322c30682e313361312e33332c312e33332c302c302c312c2e33372e313263362e322c332e31322c36302c33322c34302e36392c38342e37366c2d2e30392e3133632d2e31362e32312d2e33322e34332d2e34392e3634732d2e342e392e32392c312e373563322e38382c332e322c342e36332c362e39342c342e382c31302e32356c312e32312c38302e32375a6d38312e39342d39342e36352d2e30392e31322d2e32362e33342d392e36362c382e39346331372e35362d35322e35312d33352e38322d38312e31362d34322d38342e323961322e34332c322e34332c302c302c302d2e37382d2e32342c322e33312c322e33312c302c302c302d2e37392e30352c37332e342c37332e342c302c302c302d31382e312c372e37346331312e33342d31322c32362e36332d31362e35362c33302e33312d31372e3532612e38332e38332c302c302c312c2e32322c30682e313361312e332c312e332c302c302c312c2e33372e3131433832302e32372c313030362e35342c3837342e30352c313033352e34332c3835342e37362c313038382e31395a6d2d38312e352d35352e31326134382e34382c34382e34382c302c302c302d342e31332c32312e37392c37392e38392c37392e38392c302c302c302c352e35372c32352e35356c2d2e31352e32312d31302e37362c3130632d362e36382d31372e36392d372e31312d33332e31362d312e32382d34366134382e38312c34382e38312c302c302c312c31342e33332d31372e39344134342e37342c34342e37342c302c302c302c3737332e32362c313033332e30375a6d2d312e37392c35322e366131302e35372c31302e35372c302c302c302d312e32372c346c312e34312c39332e313861312e33352c312e33352c302c302c302c312e31372c312e32396c37352e38362c392e33312e31372c31312e32334c3736312c313139332e38316c2d312e342d393363302d312e38352c312e382d352c332e31322d375a6d37372c32352e3837632d2e31332d332e33362d322d372e32392d352e31342d31302e37376c31312d31302e3138612e39342e39342c302c302c302c2e30392e313263322e38382c332e322c342e36332c362e39342c342e37392c31302e32356c312e34312c39322e37322d31302e38352d312e33345a27207472616e73666f726d3d277472616e736c617465282d3637322e3636202d3932392e383329272f3e3c7465787420636c6173733d27636c732d313027207472616e73666f726d3d277472616e736c61746528382e332031362e363429273e",
  "linkReferences": {},
  "deployedLinkReferences": {}
}